{
  "contractName": "Contract",
  "abi": [
    {
      "inputs": [],
      "stateMutability": "nonpayable",
      "type": "constructor"
    },
    {
      "anonymous": false,
      "inputs": [
        {
          "indexed": false,
          "internalType": "address",
          "name": "message",
          "type": "address"
        }
      ],
      "name": "LogAddressPrint",
      "type": "event"
    },
    {
      "anonymous": false,
      "inputs": [
        {
          "indexed": false,
          "internalType": "string",
          "name": "message",
          "type": "string"
        }
      ],
      "name": "LogPrint",
      "type": "event"
    },
    {
      "inputs": [],
      "name": "getOwner",
      "outputs": [
        {
          "internalType": "address",
          "name": "",
          "type": "address"
        }
      ],
      "stateMutability": "view",
      "type": "function",
      "constant": true
    },
    {
      "inputs": [
        {
          "internalType": "string",
          "name": "uniqueId",
          "type": "string"
        },
        {
          "internalType": "string",
          "name": "ipfsHash",
          "type": "string"
        },
        {
          "internalType": "address",
          "name": "universityAddress",
          "type": "address"
        }
      ],
      "name": "uploadDocument",
      "outputs": [],
      "stateMutability": "nonpayable",
      "type": "function"
    },
    {
      "inputs": [
        {
          "internalType": "string[][]",
          "name": "data",
          "type": "string[][]"
        },
        {
          "internalType": "address[]",
          "name": "studentAddressList",
          "type": "address[]"
        },
        {
          "internalType": "uint256",
          "name": "count",
          "type": "uint256"
        }
      ],
      "name": "uploadDocumentnVerify",
      "outputs": [],
      "stateMutability": "nonpayable",
      "type": "function"
    },
    {
      "inputs": [
        {
          "internalType": "string",
          "name": "uniqueId",
          "type": "string"
        },
        {
          "internalType": "string",
          "name": "oldipfsHash",
          "type": "string"
        },
        {
          "internalType": "string",
          "name": "newipfsHash",
          "type": "string"
        }
      ],
      "name": "verifyDocument",
      "outputs": [],
      "stateMutability": "nonpayable",
      "type": "function"
    },
    {
      "inputs": [
        {
          "internalType": "string",
          "name": "uniqueId",
          "type": "string"
        },
        {
          "internalType": "string",
          "name": "newipfsHash",
          "type": "string"
        }
      ],
      "name": "unverifyDocument",
      "outputs": [],
      "stateMutability": "nonpayable",
      "type": "function"
    },
    {
      "inputs": [
        {
          "internalType": "string",
          "name": "uniqueId",
          "type": "string"
        },
        {
          "internalType": "address",
          "name": "companyAddress",
          "type": "address"
        }
      ],
      "name": "includeCompany",
      "outputs": [],
      "stateMutability": "nonpayable",
      "type": "function"
    },
    {
      "inputs": [
        {
          "internalType": "string",
          "name": "uniqueId",
          "type": "string"
        },
        {
          "internalType": "address",
          "name": "companyAddress",
          "type": "address"
        }
      ],
      "name": "removeCompany",
      "outputs": [],
      "stateMutability": "nonpayable",
      "type": "function"
    },
    {
      "inputs": [
        {
          "internalType": "string",
          "name": "uniqueId",
          "type": "string"
        }
      ],
      "name": "checkStatus",
      "outputs": [
        {
          "internalType": "string[2]",
          "name": "",
          "type": "string[2]"
        }
      ],
      "stateMutability": "view",
      "type": "function",
      "constant": true
    },
    {
      "inputs": [
        {
          "internalType": "string",
          "name": "uniqueId",
          "type": "string"
        },
        {
          "internalType": "string",
          "name": "newipfsHash",
          "type": "string"
        }
      ],
      "name": "checknverify",
      "outputs": [
        {
          "internalType": "bool",
          "name": "",
          "type": "bool"
        }
      ],
      "stateMutability": "view",
      "type": "function",
      "constant": true
    },
    {
      "inputs": [],
      "name": "registerCompany",
      "outputs": [],
      "stateMutability": "nonpayable",
      "type": "function"
    },
    {
      "inputs": [
        {
          "internalType": "address",
          "name": "companyAddress",
          "type": "address"
        }
      ],
      "name": "verifyCompany",
      "outputs": [],
      "stateMutability": "nonpayable",
      "type": "function"
    },
    {
      "inputs": [
        {
          "internalType": "address",
          "name": "companyAddress",
          "type": "address"
        }
      ],
      "name": "unverifyCompany",
      "outputs": [],
      "stateMutability": "nonpayable",
      "type": "function"
    },
    {
      "inputs": [],
      "name": "addUniversity",
      "outputs": [],
      "stateMutability": "nonpayable",
      "type": "function"
    },
    {
      "inputs": [
        {
          "internalType": "address",
          "name": "universityAddress",
          "type": "address"
        }
      ],
      "name": "verifyUniversity",
      "outputs": [],
      "stateMutability": "nonpayable",
      "type": "function"
    },
    {
      "inputs": [
        {
          "internalType": "address",
          "name": "universityAddress",
          "type": "address"
        }
      ],
      "name": "removeUniversity",
      "outputs": [],
      "stateMutability": "nonpayable",
      "type": "function"
    },
    {
      "inputs": [],
      "name": "getAllUniversityAddresses",
      "outputs": [
        {
          "internalType": "address[]",
          "name": "",
          "type": "address[]"
        }
      ],
      "stateMutability": "view",
      "type": "function",
      "constant": true
    },
    {
      "inputs": [],
      "name": "getAllCompanyAddresses",
      "outputs": [
        {
          "internalType": "address[]",
          "name": "",
          "type": "address[]"
        }
      ],
      "stateMutability": "view",
      "type": "function",
      "constant": true
    },
    {
      "inputs": [
        {
          "internalType": "address",
          "name": "universityAddress",
          "type": "address"
        }
      ],
      "name": "checkUniversity",
      "outputs": [
        {
          "internalType": "bool",
          "name": "",
          "type": "bool"
        }
      ],
      "stateMutability": "view",
      "type": "function",
      "constant": true
    },
    {
      "inputs": [
        {
          "internalType": "address",
          "name": "companyAddress",
          "type": "address"
        }
      ],
      "name": "checkCompany",
      "outputs": [
        {
          "internalType": "bool",
          "name": "",
          "type": "bool"
        }
      ],
      "stateMutability": "view",
      "type": "function",
      "constant": true
    },
    {
      "inputs": [],
      "name": "getUniversityDocumentList",
      "outputs": [
        {
          "internalType": "string[]",
          "name": "",
          "type": "string[]"
        }
      ],
      "stateMutability": "view",
      "type": "function",
      "constant": true
    },
    {
      "inputs": [],
      "name": "getStudentDocumentList",
      "outputs": [
        {
          "internalType": "string[]",
          "name": "",
          "type": "string[]"
        }
      ],
      "stateMutability": "view",
      "type": "function",
      "constant": true
    },
    {
      "inputs": [
        {
          "internalType": "string",
          "name": "uniqueId",
          "type": "string"
        }
      ],
      "name": "getDocumentCompanyList",
      "outputs": [
        {
          "internalType": "address[]",
          "name": "",
          "type": "address[]"
        }
      ],
      "stateMutability": "view",
      "type": "function",
      "constant": true
    },
    {
      "inputs": [
        {
          "internalType": "string",
          "name": "uniqueId",
          "type": "string"
        }
      ],
      "name": "getDocumentDetails",
      "outputs": [
        {
          "internalType": "string[2]",
          "name": "",
          "type": "string[2]"
        },
        {
          "internalType": "address[2]",
          "name": "",
          "type": "address[2]"
        }
      ],
      "stateMutability": "view",
      "type": "function",
      "constant": true
    }
  ],
  "bytecode": "0x608060405234801561001057600080fd5b5033600860006101000a81548173ffffffffffffffffffffffffffffffffffffffff021916908373ffffffffffffffffffffffffffffffffffffffff160217905550615d1580620000626000396000f3fe608060405234801561001057600080fd5b506004361061014d5760003560e01c80638b999def116100c3578063d29352db1161007c578063d29352db14610350578063d7d8115a14610381578063db5e842b146103b1578063e1a3e647146103cd578063ec6614e2146103fd578063f592146d146104195761014d565b80638b999def1461028c57806390cc84e0146102aa578063ab9db63f146102c6578063b77553b6146102e4578063b9b3bb3614610314578063cd89b936146103325761014d565b806344b0a9951161011557806344b0a995146101e05780635526e6e4146102105780635cba100d1461022c5780637cad110714610248578063877af46514610252578063893d20e81461026e5761014d565b806313a65808146101525780631fe5994b1461015c57806328f54b2f146101785780632bbfef89146101945780633308a90f146101b0575b600080fd5b61015a610435565b005b61017660048036038101906101719190613ced565b610527565b005b610192600480360381019061018d9190613d78565b610959565b005b6101ae60048036038101906101a99190613da5565b610b05565b005b6101ca60048036038101906101c59190613d78565b610eea565b6040516101d79190613e1c565b60405180910390f35b6101fa60048036038101906101f59190613e37565b610f40565b6040516102079190613fbe565b60405180910390f35b61022a60048036038101906102259190613fe0565b61138e565b005b61024660048036038101906102419190614087565b61179e565b005b610250611b4f565b005b61026c60048036038101906102679190613d78565b611c41565b005b610276611ded565b604051610283919061410e565b60405180910390f35b610294611e17565b6040516102a191906141e7565b60405180910390f35b6102c460048036038101906102bf91906144c9565b611ea5565b005b6102ce612344565b6040516102db9190614602565b60405180910390f35b6102fe60048036038101906102f99190613d78565b61245a565b60405161030b9190613e1c565b60405180910390f35b61031c6124b0565b60405161032991906141e7565b60405180910390f35b61033a61253e565b6040516103479190614602565b60405180910390f35b61036a60048036038101906103659190613e37565b6126e0565b6040516103789291906146a8565b60405180910390f35b61039b60048036038101906103969190613e37565b612b32565b6040516103a891906141e7565b60405180910390f35b6103cb60048036038101906103c69190613da5565b612faa565b005b6103e760048036038101906103e29190614087565b61338d565b6040516103f49190613e1c565b60405180910390f35b61041760048036038101906104129190613d78565b6136f0565b005b610433600480360381019061042e9190613d78565b61389c565b005b6000600160003373ffffffffffffffffffffffffffffffffffffffff1673ffffffffffffffffffffffffffffffffffffffff16815260200190815260200160002060006101000a81548160ff0219169083151502179055506006339080600181540180825580915050600190039060005260206000200160009091909190916101000a81548173ffffffffffffffffffffffffffffffffffffffff021916908373ffffffffffffffffffffffffffffffffffffffff1602179055507f894570b4cbd952cb1af656ba8df9c5f7785370e07bdc03173d6290b8feb6e23460405161051d90614735565b60405180910390a1565b600082511161056b576040517f08c379a0000000000000000000000000000000000000000000000000000000008152600401610562906147a1565b60405180910390fd5b60008351116105af576040517f08c379a00000000000000000000000000000000000000000000000000000000081526004016105a69061480d565b60405180910390fd5b600073ffffffffffffffffffffffffffffffffffffffff166003846040516105d79190614869565b908152602001604051809103902060000160009054906101000a900473ffffffffffffffffffffffffffffffffffffffff1673ffffffffffffffffffffffffffffffffffffffff161461065f576040517f08c379a0000000000000000000000000000000000000000000000000000000008152600401610656906148cc565b60405180910390fd5b600160008273ffffffffffffffffffffffffffffffffffffffff1673ffffffffffffffffffffffffffffffffffffffff16815260200190815260200160002060009054906101000a900460ff166106eb576040517f08c379a00000000000000000000000000000000000000000000000000000000081526004016106e29061495e565b60405180910390fd5b600060405180608001604052803373ffffffffffffffffffffffffffffffffffffffff1681526020018373ffffffffffffffffffffffffffffffffffffffff168152602001848152602001600015158152509050806003856040516107509190614869565b908152602001604051809103902060008201518160000160006101000a81548173ffffffffffffffffffffffffffffffffffffffff021916908373ffffffffffffffffffffffffffffffffffffffff16021790555060208201518160010160006101000a81548173ffffffffffffffffffffffffffffffffffffffff021916908373ffffffffffffffffffffffffffffffffffffffff1602179055506040820151816002019080519060200190610808929190613a49565b5060608201518160030160006101000a81548160ff021916908315150217905550905050600460008373ffffffffffffffffffffffffffffffffffffffff1673ffffffffffffffffffffffffffffffffffffffff168152602001908152602001600020849080600181540180825580915050600190039060005260206000200160009091909190915090805190602001906108a4929190613a49565b50600560003373ffffffffffffffffffffffffffffffffffffffff1673ffffffffffffffffffffffffffffffffffffffff1681526020019081526020016000208490806001815401808255809150506001900390600052602060002001600090919091909150908051906020019061091d929190613a49565b507f894570b4cbd952cb1af656ba8df9c5f7785370e07bdc03173d6290b8feb6e23460405161094b906149ca565b60405180910390a150505050565b600860009054906101000a900473ffffffffffffffffffffffffffffffffffffffff1673ffffffffffffffffffffffffffffffffffffffff163373ffffffffffffffffffffffffffffffffffffffff16146109e9576040517f08c379a00000000000000000000000000000000000000000000000000000000081526004016109e090614a5c565b60405180910390fd5b600160008273ffffffffffffffffffffffffffffffffffffffff1673ffffffffffffffffffffffffffffffffffffffff16815260200190815260200160002060009054906101000a900460ff16610a75576040517f08c379a0000000000000000000000000000000000000000000000000000000008152600401610a6c90614ac8565b60405180910390fd5b6000600160008373ffffffffffffffffffffffffffffffffffffffff1673ffffffffffffffffffffffffffffffffffffffff16815260200190815260200160002060006101000a81548160ff0219169083151502179055507f894570b4cbd952cb1af656ba8df9c5f7785370e07bdc03173d6290b8feb6e234604051610afa90614b34565b60405180910390a150565b6000825111610b49576040517f08c379a0000000000000000000000000000000000000000000000000000000008152600401610b409061480d565b60405180910390fd5b600260008273ffffffffffffffffffffffffffffffffffffffff1673ffffffffffffffffffffffffffffffffffffffff16815260200190815260200160002060009054906101000a900460ff16610bd5576040517f08c379a0000000000000000000000000000000000000000000000000000000008152600401610bcc90614ba0565b60405180910390fd5b600073ffffffffffffffffffffffffffffffffffffffff16600383604051610bfd9190614869565b908152602001604051809103902060000160009054906101000a900473ffffffffffffffffffffffffffffffffffffffff1673ffffffffffffffffffffffffffffffffffffffff1603610c85576040517f08c379a0000000000000000000000000000000000000000000000000000000008152600401610c7c90614c0c565b60405180910390fd5b600082604051610c959190614869565b908152602001604051809103902060008273ffffffffffffffffffffffffffffffffffffffff1673ffffffffffffffffffffffffffffffffffffffff16815260200190815260200160002060009054906101000a900460ff1615610d2e576040517f08c379a0000000000000000000000000000000000000000000000000000000008152600401610d2590614c78565b60405180910390fd5b6000600383604051610d409190614869565b908152602001604051809103902090503373ffffffffffffffffffffffffffffffffffffffff168160000160009054906101000a900473ffffffffffffffffffffffffffffffffffffffff1673ffffffffffffffffffffffffffffffffffffffff161480610dfd57503373ffffffffffffffffffffffffffffffffffffffff168160010160009054906101000a900473ffffffffffffffffffffffffffffffffffffffff1673ffffffffffffffffffffffffffffffffffffffff16145b610e3c576040517f08c379a0000000000000000000000000000000000000000000000000000000008152600401610e3390614d0a565b60405180910390fd5b6001600084604051610e4e9190614869565b908152602001604051809103902060008473ffffffffffffffffffffffffffffffffffffffff1673ffffffffffffffffffffffffffffffffffffffff16815260200190815260200160002060006101000a81548160ff0219169083151502179055507f894570b4cbd952cb1af656ba8df9c5f7785370e07bdc03173d6290b8feb6e234604051610edd90614d76565b60405180910390a1505050565b6000600160008373ffffffffffffffffffffffffffffffffffffffff1673ffffffffffffffffffffffffffffffffffffffff16815260200190815260200160002060009054906101000a900460ff169050919050565b610f48613acf565b6000825111610f8c576040517f08c379a0000000000000000000000000000000000000000000000000000000008152600401610f839061480d565b60405180910390fd5b600073ffffffffffffffffffffffffffffffffffffffff16600383604051610fb49190614869565b908152602001604051809103902060000160009054906101000a900473ffffffffffffffffffffffffffffffffffffffff1673ffffffffffffffffffffffffffffffffffffffff160361103c576040517f08c379a000000000000000000000000000000000000000000000000000000000815260040161103390614c0c565b60405180910390fd5b600060038360405161104e9190614869565b9081526020016040518091039020905060008360405161106e9190614869565b908152602001604051809103902060003373ffffffffffffffffffffffffffffffffffffffff1673ffffffffffffffffffffffffffffffffffffffff16815260200190815260200160002060009054906101000a900460ff168061112157503373ffffffffffffffffffffffffffffffffffffffff168160000160009054906101000a900473ffffffffffffffffffffffffffffffffffffffff1673ffffffffffffffffffffffffffffffffffffffff16145b8061117b57503373ffffffffffffffffffffffffffffffffffffffff168160010160009054906101000a900473ffffffffffffffffffffffffffffffffffffffff1673ffffffffffffffffffffffffffffffffffffffff16145b6111ba576040517f08c379a00000000000000000000000000000000000000000000000000000000081526004016111b190614e08565b60405180910390fd5b8060030160009054906101000a900460ff16156112af5760405180604001604052806040518060400160405280600481526020017f7472756500000000000000000000000000000000000000000000000000000000815250815260200182600201805461122690614e57565b80601f016020809104026020016040519081016040528092919081815260200182805461125290614e57565b801561129f5780601f106112745761010080835404028352916020019161129f565b820191906000526020600020905b81548152906001019060200180831161128257829003601f168201915b5050505050815250915050611389565b60405180604001604052806040518060400160405280600581526020017f66616c7365000000000000000000000000000000000000000000000000000000815250815260200182600201805461130490614e57565b80601f016020809104026020016040519081016040528092919081815260200182805461133090614e57565b801561137d5780601f106113525761010080835404028352916020019161137d565b820191906000526020600020905b81548152906001019060200180831161136057829003601f168201915b50505050508152509150505b919050565b60008351116113d2576040517f08c379a00000000000000000000000000000000000000000000000000000000081526004016113c99061480d565b60405180910390fd5b600160003373ffffffffffffffffffffffffffffffffffffffff1673ffffffffffffffffffffffffffffffffffffffff16815260200190815260200160002060009054906101000a900460ff1661145e576040517f08c379a000000000000000000000000000000000000000000000000000000000815260040161145590614efa565b60405180910390fd5b60008251116114a2576040517f08c379a000000000000000000000000000000000000000000000000000000000815260040161149990614f66565b60405180910390fd5b60008151116114e6576040517f08c379a00000000000000000000000000000000000000000000000000000000081526004016114dd90614fd2565b60405180910390fd5b600073ffffffffffffffffffffffffffffffffffffffff1660038460405161150e9190614869565b908152602001604051809103902060000160009054906101000a900473ffffffffffffffffffffffffffffffffffffffff1673ffffffffffffffffffffffffffffffffffffffff1603611596576040517f08c379a000000000000000000000000000000000000000000000000000000000815260040161158d90614c0c565b60405180910390fd5b60006003846040516115a89190614869565b908152602001604051809103902090503373ffffffffffffffffffffffffffffffffffffffff168160010160009054906101000a900473ffffffffffffffffffffffffffffffffffffffff1673ffffffffffffffffffffffffffffffffffffffff161461164a576040517f08c379a00000000000000000000000000000000000000000000000000000000081526004016116419061508a565b60405180910390fd5b8260405160200161165b9190614869565b6040516020818303038152906040528051906020012081600201604051602001611685919061513e565b60405160208183030381529060405280519060200120146116db576040517f08c379a00000000000000000000000000000000000000000000000000000000081526004016116d2906151a1565b60405180910390fd5b8060030160009054906101000a900460ff161561172d576040517f08c379a00000000000000000000000000000000000000000000000000000000081526004016117249061520d565b60405180910390fd5b81816002019080519060200190611745929190613a49565b5060018160030160006101000a81548160ff0219169083151502179055507f894570b4cbd952cb1af656ba8df9c5f7785370e07bdc03173d6290b8feb6e23460405161179090615279565b60405180910390a150505050565b60008251116117e2576040517f08c379a00000000000000000000000000000000000000000000000000000000081526004016117d99061480d565b60405180910390fd5b600160003373ffffffffffffffffffffffffffffffffffffffff1673ffffffffffffffffffffffffffffffffffffffff16815260200190815260200160002060009054906101000a900460ff1661186e576040517f08c379a00000000000000000000000000000000000000000000000000000000081526004016118659061530b565b60405180910390fd5b60008151116118b2576040517f08c379a00000000000000000000000000000000000000000000000000000000081526004016118a990614fd2565b60405180910390fd5b600073ffffffffffffffffffffffffffffffffffffffff166003836040516118da9190614869565b908152602001604051809103902060000160009054906101000a900473ffffffffffffffffffffffffffffffffffffffff1673ffffffffffffffffffffffffffffffffffffffff1603611962576040517f08c379a000000000000000000000000000000000000000000000000000000000815260040161195990614c0c565b60405180910390fd5b60006003836040516119749190614869565b908152602001604051809103902090503373ffffffffffffffffffffffffffffffffffffffff168160010160009054906101000a900473ffffffffffffffffffffffffffffffffffffffff1673ffffffffffffffffffffffffffffffffffffffff1614611a16576040517f08c379a0000000000000000000000000000000000000000000000000000000008152600401611a0d906153c3565b60405180910390fd5b81604051602001611a279190614869565b6040516020818303038152906040528051906020012081600201604051602001611a51919061513e565b6040516020818303038152906040528051906020012014611aa7576040517f08c379a0000000000000000000000000000000000000000000000000000000008152600401611a9e906151a1565b60405180910390fd5b8060030160009054906101000a900460ff16611af8576040517f08c379a0000000000000000000000000000000000000000000000000000000008152600401611aef9061542f565b60405180910390fd5b60008160030160006101000a81548160ff0219169083151502179055507f894570b4cbd952cb1af656ba8df9c5f7785370e07bdc03173d6290b8feb6e234604051611b429061549b565b60405180910390a1505050565b6000600260003373ffffffffffffffffffffffffffffffffffffffff1673ffffffffffffffffffffffffffffffffffffffff16815260200190815260200160002060006101000a81548160ff0219169083151502179055506007339080600181540180825580915050600190039060005260206000200160009091909190916101000a81548173ffffffffffffffffffffffffffffffffffffffff021916908373ffffffffffffffffffffffffffffffffffffffff1602179055507f894570b4cbd952cb1af656ba8df9c5f7785370e07bdc03173d6290b8feb6e234604051611c3790615507565b60405180910390a1565b600860009054906101000a900473ffffffffffffffffffffffffffffffffffffffff1673ffffffffffffffffffffffffffffffffffffffff163373ffffffffffffffffffffffffffffffffffffffff1614611cd1576040517f08c379a0000000000000000000000000000000000000000000000000000000008152600401611cc890614a5c565b60405180910390fd5b600160008273ffffffffffffffffffffffffffffffffffffffff1673ffffffffffffffffffffffffffffffffffffffff16815260200190815260200160002060009054906101000a900460ff1615611d5e576040517f08c379a0000000000000000000000000000000000000000000000000000000008152600401611d5590615573565b60405180910390fd5b60018060008373ffffffffffffffffffffffffffffffffffffffff1673ffffffffffffffffffffffffffffffffffffffff16815260200190815260200160002060006101000a81548160ff0219169083151502179055507f894570b4cbd952cb1af656ba8df9c5f7785370e07bdc03173d6290b8feb6e234604051611de2906155df565b60405180910390a150565b6000600860009054906101000a900473ffffffffffffffffffffffffffffffffffffffff16905090565b60606007805480602002602001604051908101604052809291908181526020018280548015611e9b57602002820191906000526020600020905b8160009054906101000a900473ffffffffffffffffffffffffffffffffffffffff1673ffffffffffffffffffffffffffffffffffffffff1681526020019060010190808311611e51575b5050505050905090565b600160003373ffffffffffffffffffffffffffffffffffffffff1673ffffffffffffffffffffffffffffffffffffffff16815260200190815260200160002060009054906101000a900460ff16611f31576040517f08c379a0000000000000000000000000000000000000000000000000000000008152600401611f289061495e565b60405180910390fd5b808351101580611f42575080825110155b611f81576040517f08c379a0000000000000000000000000000000000000000000000000000000008152600401611f789061564b565b60405180910390fd5b8151835114611fc5576040517f08c379a0000000000000000000000000000000000000000000000000000000008152600401611fbc906156b7565b60405180910390fd5b60005b8181101561233e576002848281518110611fe557611fe46156d7565b5b6020026020010151511461202e576040517f08c379a000000000000000000000000000000000000000000000000000000000815260040161202590615778565b60405180910390fd5b6000604051806080016040528085848151811061204e5761204d6156d7565b5b602002602001015173ffffffffffffffffffffffffffffffffffffffff1681526020013373ffffffffffffffffffffffffffffffffffffffff1681526020018684815181106120a05761209f6156d7565b5b60200260200101516001815181106120bb576120ba6156d7565b5b6020026020010151815260200160011515815250905060008583815181106120e6576120e56156d7565b5b6020026020010151600081518110612101576121006156d7565b5b602002602001015190508160038260405161211c9190614869565b908152602001604051809103902060008201518160000160006101000a81548173ffffffffffffffffffffffffffffffffffffffff021916908373ffffffffffffffffffffffffffffffffffffffff16021790555060208201518160010160006101000a81548173ffffffffffffffffffffffffffffffffffffffff021916908373ffffffffffffffffffffffffffffffffffffffff16021790555060408201518160020190805190602001906121d4929190613a49565b5060608201518160030160006101000a81548160ff021916908315150217905550905050600460003373ffffffffffffffffffffffffffffffffffffffff1673ffffffffffffffffffffffffffffffffffffffff16815260200190815260200160002081908060018154018082558091505060019003906000526020600020016000909190919091509080519060200190612270929190613a49565b5060056000836000015173ffffffffffffffffffffffffffffffffffffffff1673ffffffffffffffffffffffffffffffffffffffff168152602001908152602001600020819080600181540180825580915050600190039060005260206000200160009091909190915090805190602001906122ed929190613a49565b507ff5cd562a8c1c6e008d6f406c71229844c575d31ec8f589e1ff43219d50e9b4498260000151604051612321919061410e565b60405180910390a150508080612336906157c7565b915050611fc8565b50505050565b6060600560003373ffffffffffffffffffffffffffffffffffffffff1673ffffffffffffffffffffffffffffffffffffffff168152602001908152602001600020805480602002602001604051908101604052809291908181526020016000905b828210156124515783829060005260206000200180546123c490614e57565b80601f01602080910402602001604051908101604052809291908181526020018280546123f090614e57565b801561243d5780601f106124125761010080835404028352916020019161243d565b820191906000526020600020905b81548152906001019060200180831161242057829003601f168201915b5050505050815260200190600101906123a5565b50505050905090565b6000600260008373ffffffffffffffffffffffffffffffffffffffff1673ffffffffffffffffffffffffffffffffffffffff16815260200190815260200160002060009054906101000a900460ff169050919050565b6060600680548060200260200160405190810160405280929190818152602001828054801561253457602002820191906000526020600020905b8160009054906101000a900473ffffffffffffffffffffffffffffffffffffffff1673ffffffffffffffffffffffffffffffffffffffff16815260200190600101908083116124ea575b5050505050905090565b6060600160003373ffffffffffffffffffffffffffffffffffffffff1673ffffffffffffffffffffffffffffffffffffffff16815260200190815260200160002060009054906101000a900460ff166125cc576040517f08c379a00000000000000000000000000000000000000000000000000000000081526004016125c39061585b565b60405180910390fd5b600460003373ffffffffffffffffffffffffffffffffffffffff1673ffffffffffffffffffffffffffffffffffffffff168152602001908152602001600020805480602002602001604051908101604052809291908181526020016000905b828210156126d757838290600052602060002001805461264a90614e57565b80601f016020809104026020016040519081016040528092919081815260200182805461267690614e57565b80156126c35780601f10612698576101008083540402835291602001916126c3565b820191906000526020600020905b8154815290600101906020018083116126a657829003601f168201915b50505050508152602001906001019061262b565b50505050905090565b6126e8613acf565b6126f0613af6565b6000835111612734576040517f08c379a000000000000000000000000000000000000000000000000000000000815260040161272b9061480d565b60405180910390fd5b60006003846040516127469190614869565b90815260200160405180910390209050600073ffffffffffffffffffffffffffffffffffffffff168160000160009054906101000a900473ffffffffffffffffffffffffffffffffffffffff1673ffffffffffffffffffffffffffffffffffffffff16036127e9576040517f08c379a00000000000000000000000000000000000000000000000000000000081526004016127e090614c0c565b60405180910390fd5b6000846040516127f99190614869565b908152602001604051809103902060003373ffffffffffffffffffffffffffffffffffffffff1673ffffffffffffffffffffffffffffffffffffffff16815260200190815260200160002060009054906101000a900460ff16806128ac57503373ffffffffffffffffffffffffffffffffffffffff168160000160009054906101000a900473ffffffffffffffffffffffffffffffffffffffff1673ffffffffffffffffffffffffffffffffffffffff16145b8061290657503373ffffffffffffffffffffffffffffffffffffffff168160010160009054906101000a900473ffffffffffffffffffffffffffffffffffffffff1673ffffffffffffffffffffffffffffffffffffffff16145b612945576040517f08c379a000000000000000000000000000000000000000000000000000000000815260040161293c906158ed565b60405180910390fd5b60008160030160009054906101000a900460ff16612998576040518060400160405280600581526020017f66616c73650000000000000000000000000000000000000000000000000000008152506129cf565b6040518060400160405280600481526020017f74727565000000000000000000000000000000000000000000000000000000008152505b905060405180604001604052808360020180546129eb90614e57565b80601f0160208091040260200160405190810160405280929190818152602001828054612a1790614e57565b8015612a645780601f10612a3957610100808354040283529160200191612a64565b820191906000526020600020905b815481529060010190602001808311612a4757829003601f168201915b505050505081526020018281525060405180604001604052808460000160009054906101000a900473ffffffffffffffffffffffffffffffffffffffff1673ffffffffffffffffffffffffffffffffffffffff1673ffffffffffffffffffffffffffffffffffffffff1681526020018460010160009054906101000a900473ffffffffffffffffffffffffffffffffffffffff1673ffffffffffffffffffffffffffffffffffffffff1673ffffffffffffffffffffffffffffffffffffffff16815250935093505050915091565b60606000825111612b78576040517f08c379a0000000000000000000000000000000000000000000000000000000008152600401612b6f9061480d565b60405180910390fd5b6000600383604051612b8a9190614869565b90815260200160405180910390209050600073ffffffffffffffffffffffffffffffffffffffff168160000160009054906101000a900473ffffffffffffffffffffffffffffffffffffffff1673ffffffffffffffffffffffffffffffffffffffff1603612c2d576040517f08c379a0000000000000000000000000000000000000000000000000000000008152600401612c2490614c0c565b60405180910390fd5b3373ffffffffffffffffffffffffffffffffffffffff168160000160009054906101000a900473ffffffffffffffffffffffffffffffffffffffff1673ffffffffffffffffffffffffffffffffffffffff161480612cda57503373ffffffffffffffffffffffffffffffffffffffff168160010160009054906101000a900473ffffffffffffffffffffffffffffffffffffffff1673ffffffffffffffffffffffffffffffffffffffff16145b612d19576040517f08c379a0000000000000000000000000000000000000000000000000000000008152600401612d109061597f565b60405180910390fd5b60008084604051612d2a9190614869565b90815260200160405180910390209050600080600090505b600780549050811015612e005782600060078381548110612d6657612d656156d7565b5b9060005260206000200160009054906101000a900473ffffffffffffffffffffffffffffffffffffffff1673ffffffffffffffffffffffffffffffffffffffff1673ffffffffffffffffffffffffffffffffffffffff16815260200190815260200160002060009054906101000a900460ff1615612ded578180612de9906157c7565b9250505b8080612df8906157c7565b915050612d42565b5060008167ffffffffffffffff811115612e1d57612e1c613b64565b5b604051908082528060200260200182016040528015612e4b5781602001602082028036833780820191505090505b5090506000805b600780549050811015612f9c5784600060078381548110612e7657612e756156d7565b5b9060005260206000200160009054906101000a900473ffffffffffffffffffffffffffffffffffffffff1673ffffffffffffffffffffffffffffffffffffffff1673ffffffffffffffffffffffffffffffffffffffff16815260200190815260200160002060009054906101000a900460ff1615612f895760078181548110612f0257612f016156d7565b5b9060005260206000200160009054906101000a900473ffffffffffffffffffffffffffffffffffffffff16838381518110612f4057612f3f6156d7565b5b602002602001019073ffffffffffffffffffffffffffffffffffffffff16908173ffffffffffffffffffffffffffffffffffffffff16815250508180612f85906157c7565b9250505b8080612f94906157c7565b915050612e52565b508195505050505050919050565b6000825111612fee576040517f08c379a0000000000000000000000000000000000000000000000000000000008152600401612fe59061480d565b60405180910390fd5b600260008273ffffffffffffffffffffffffffffffffffffffff1673ffffffffffffffffffffffffffffffffffffffff16815260200190815260200160002060009054906101000a900460ff1661307a576040517f08c379a000000000000000000000000000000000000000000000000000000000815260040161307190614ba0565b60405180910390fd5b600073ffffffffffffffffffffffffffffffffffffffff166003836040516130a29190614869565b908152602001604051809103902060000160009054906101000a900473ffffffffffffffffffffffffffffffffffffffff1673ffffffffffffffffffffffffffffffffffffffff160361312a576040517f08c379a000000000000000000000000000000000000000000000000000000000815260040161312190614c0c565b60405180910390fd5b60008260405161313a9190614869565b908152602001604051809103902060008273ffffffffffffffffffffffffffffffffffffffff1673ffffffffffffffffffffffffffffffffffffffff16815260200190815260200160002060009054906101000a900460ff166131d2576040517f08c379a00000000000000000000000000000000000000000000000000000000081526004016131c990615a11565b60405180910390fd5b60006003836040516131e49190614869565b908152602001604051809103902090503373ffffffffffffffffffffffffffffffffffffffff168160000160009054906101000a900473ffffffffffffffffffffffffffffffffffffffff1673ffffffffffffffffffffffffffffffffffffffff1614806132a157503373ffffffffffffffffffffffffffffffffffffffff168160010160009054906101000a900473ffffffffffffffffffffffffffffffffffffffff1673ffffffffffffffffffffffffffffffffffffffff16145b6132e0576040517f08c379a00000000000000000000000000000000000000000000000000000000081526004016132d790615aa3565b60405180910390fd5b600080846040516132f19190614869565b908152602001604051809103902060008473ffffffffffffffffffffffffffffffffffffffff1673ffffffffffffffffffffffffffffffffffffffff16815260200190815260200160002060006101000a81548160ff0219169083151502179055507f894570b4cbd952cb1af656ba8df9c5f7785370e07bdc03173d6290b8feb6e23460405161338090615b0f565b60405180910390a1505050565b6000808251116133d2576040517f08c379a00000000000000000000000000000000000000000000000000000000081526004016133c9906147a1565b60405180910390fd5b6000835111613416576040517f08c379a000000000000000000000000000000000000000000000000000000000815260040161340d9061480d565b60405180910390fd5b600073ffffffffffffffffffffffffffffffffffffffff1660038460405161343e9190614869565b908152602001604051809103902060000160009054906101000a900473ffffffffffffffffffffffffffffffffffffffff1673ffffffffffffffffffffffffffffffffffffffff16036134c6576040517f08c379a00000000000000000000000000000000000000000000000000000000081526004016134bd90614c0c565b60405180910390fd5b60006003846040516134d89190614869565b908152602001604051809103902090506000846040516134f89190614869565b908152602001604051809103902060003373ffffffffffffffffffffffffffffffffffffffff1673ffffffffffffffffffffffffffffffffffffffff16815260200190815260200160002060009054906101000a900460ff16806135ab57503373ffffffffffffffffffffffffffffffffffffffff168160000160009054906101000a900473ffffffffffffffffffffffffffffffffffffffff1673ffffffffffffffffffffffffffffffffffffffff16145b8061360557503373ffffffffffffffffffffffffffffffffffffffff168160010160009054906101000a900473ffffffffffffffffffffffffffffffffffffffff1673ffffffffffffffffffffffffffffffffffffffff16145b613644576040517f08c379a000000000000000000000000000000000000000000000000000000000815260040161363b90614e08565b60405180910390fd5b826040516020016136559190614869565b604051602081830303815290604052805190602001208160020160405160200161367f919061513e565b60405160208183030381529060405280519060200120146136d5576040517f08c379a00000000000000000000000000000000000000000000000000000000081526004016136cc906151a1565b60405180910390fd5b8060030160009054906101000a900460ff1691505092915050565b600860009054906101000a900473ffffffffffffffffffffffffffffffffffffffff1673ffffffffffffffffffffffffffffffffffffffff163373ffffffffffffffffffffffffffffffffffffffff1614613780576040517f08c379a000000000000000000000000000000000000000000000000000000000815260040161377790614a5c565b60405180910390fd5b600260008273ffffffffffffffffffffffffffffffffffffffff1673ffffffffffffffffffffffffffffffffffffffff16815260200190815260200160002060009054906101000a900460ff1661380c576040517f08c379a000000000000000000000000000000000000000000000000000000000815260040161380390615b7b565b60405180910390fd5b6000600260008373ffffffffffffffffffffffffffffffffffffffff1673ffffffffffffffffffffffffffffffffffffffff16815260200190815260200160002060006101000a81548160ff0219169083151502179055507f894570b4cbd952cb1af656ba8df9c5f7785370e07bdc03173d6290b8feb6e23460405161389190615be7565b60405180910390a150565b600860009054906101000a900473ffffffffffffffffffffffffffffffffffffffff1673ffffffffffffffffffffffffffffffffffffffff163373ffffffffffffffffffffffffffffffffffffffff161461392c576040517f08c379a000000000000000000000000000000000000000000000000000000000815260040161392390614a5c565b60405180910390fd5b600260008273ffffffffffffffffffffffffffffffffffffffff1673ffffffffffffffffffffffffffffffffffffffff16815260200190815260200160002060009054906101000a900460ff16156139b9576040517f08c379a00000000000000000000000000000000000000000000000000000000081526004016139b090615c53565b60405180910390fd5b6001600260008373ffffffffffffffffffffffffffffffffffffffff1673ffffffffffffffffffffffffffffffffffffffff16815260200190815260200160002060006101000a81548160ff0219169083151502179055507f894570b4cbd952cb1af656ba8df9c5f7785370e07bdc03173d6290b8feb6e234604051613a3e90615cbf565b60405180910390a150565b828054613a5590614e57565b90600052602060002090601f016020900481019282613a775760008555613abe565b82601f10613a9057805160ff1916838001178555613abe565b82800160010185558215613abe579182015b82811115613abd578251825591602001919060010190613aa2565b5b509050613acb9190613b18565b5090565b60405180604001604052806002905b6060815260200190600190039081613ade5790505090565b6040518060400160405280600290602082028036833780820191505090505090565b5b80821115613b31576000816000905550600101613b19565b5090565b6000604051905090565b600080fd5b600080fd5b600080fd5b600080fd5b6000601f19601f8301169050919050565b7f4e487b7100000000000000000000000000000000000000000000000000000000600052604160045260246000fd5b613b9c82613b53565b810181811067ffffffffffffffff82111715613bbb57613bba613b64565b5b80604052505050565b6000613bce613b35565b9050613bda8282613b93565b919050565b600067ffffffffffffffff821115613bfa57613bf9613b64565b5b613c0382613b53565b9050602081019050919050565b82818337600083830152505050565b6000613c32613c2d84613bdf565b613bc4565b905082815260208101848484011115613c4e57613c4d613b4e565b5b613c59848285613c10565b509392505050565b600082601f830112613c7657613c75613b49565b5b8135613c86848260208601613c1f565b91505092915050565b600073ffffffffffffffffffffffffffffffffffffffff82169050919050565b6000613cba82613c8f565b9050919050565b613cca81613caf565b8114613cd557600080fd5b50565b600081359050613ce781613cc1565b92915050565b600080600060608486031215613d0657613d05613b3f565b5b600084013567ffffffffffffffff811115613d2457613d23613b44565b5b613d3086828701613c61565b935050602084013567ffffffffffffffff811115613d5157613d50613b44565b5b613d5d86828701613c61565b9250506040613d6e86828701613cd8565b9150509250925092565b600060208284031215613d8e57613d8d613b3f565b5b6000613d9c84828501613cd8565b91505092915050565b60008060408385031215613dbc57613dbb613b3f565b5b600083013567ffffffffffffffff811115613dda57613dd9613b44565b5b613de685828601613c61565b9250506020613df785828601613cd8565b9150509250929050565b60008115159050919050565b613e1681613e01565b82525050565b6000602082019050613e316000830184613e0d565b92915050565b600060208284031215613e4d57613e4c613b3f565b5b600082013567ffffffffffffffff811115613e6b57613e6a613b44565b5b613e7784828501613c61565b91505092915050565b600060029050919050565b600081905092915050565b6000819050919050565b600081519050919050565b600082825260208201905092915050565b60005b83811015613eda578082015181840152602081019050613ebf565b83811115613ee9576000848401525b50505050565b6000613efa82613ea0565b613f048185613eab565b9350613f14818560208601613ebc565b613f1d81613b53565b840191505092915050565b6000613f348383613eef565b905092915050565b6000602082019050919050565b6000613f5482613e80565b613f5e8185613e8b565b935083602082028501613f7085613e96565b8060005b85811015613fac5784840389528151613f8d8582613f28565b9450613f9883613f3c565b925060208a01995050600181019050613f74565b50829750879550505050505092915050565b60006020820190508181036000830152613fd88184613f49565b905092915050565b600080600060608486031215613ff957613ff8613b3f565b5b600084013567ffffffffffffffff81111561401757614016613b44565b5b61402386828701613c61565b935050602084013567ffffffffffffffff81111561404457614043613b44565b5b61405086828701613c61565b925050604084013567ffffffffffffffff81111561407157614070613b44565b5b61407d86828701613c61565b9150509250925092565b6000806040838503121561409e5761409d613b3f565b5b600083013567ffffffffffffffff8111156140bc576140bb613b44565b5b6140c885828601613c61565b925050602083013567ffffffffffffffff8111156140e9576140e8613b44565b5b6140f585828601613c61565b9150509250929050565b61410881613caf565b82525050565b600060208201905061412360008301846140ff565b92915050565b600081519050919050565b600082825260208201905092915050565b6000819050602082019050919050565b61415e81613caf565b82525050565b60006141708383614155565b60208301905092915050565b6000602082019050919050565b600061419482614129565b61419e8185614134565b93506141a983614145565b8060005b838110156141da5781516141c18882614164565b97506141cc8361417c565b9250506001810190506141ad565b5085935050505092915050565b600060208201905081810360008301526142018184614189565b905092915050565b600067ffffffffffffffff82111561422457614223613b64565b5b602082029050602081019050919050565b600080fd5b600067ffffffffffffffff82111561425557614254613b64565b5b602082029050602081019050919050565b60006142796142748461423a565b613bc4565b9050808382526020820190506020840283018581111561429c5761429b614235565b5b835b818110156142e357803567ffffffffffffffff8111156142c1576142c0613b49565b5b8086016142ce8982613c61565b8552602085019450505060208101905061429e565b5050509392505050565b600082601f83011261430257614301613b49565b5b8135614312848260208601614266565b91505092915050565b600061432e61432984614209565b613bc4565b9050808382526020820190506020840283018581111561435157614350614235565b5b835b8181101561439857803567ffffffffffffffff81111561437657614375613b49565b5b80860161438389826142ed565b85526020850194505050602081019050614353565b5050509392505050565b600082601f8301126143b7576143b6613b49565b5b81356143c784826020860161431b565b91505092915050565b600067ffffffffffffffff8211156143eb576143ea613b64565b5b602082029050602081019050919050565b600061440f61440a846143d0565b613bc4565b9050808382526020820190506020840283018581111561443257614431614235565b5b835b8181101561445b57806144478882613cd8565b845260208401935050602081019050614434565b5050509392505050565b600082601f83011261447a57614479613b49565b5b813561448a8482602086016143fc565b91505092915050565b6000819050919050565b6144a681614493565b81146144b157600080fd5b50565b6000813590506144c38161449d565b92915050565b6000806000606084860312156144e2576144e1613b3f565b5b600084013567ffffffffffffffff811115614500576144ff613b44565b5b61450c868287016143a2565b935050602084013567ffffffffffffffff81111561452d5761452c613b44565b5b61453986828701614465565b925050604061454a868287016144b4565b9150509250925092565b600081519050919050565b600082825260208201905092915050565b6000819050602082019050919050565b6000602082019050919050565b600061459882614554565b6145a2818561455f565b9350836020820285016145b485614570565b8060005b858110156145f057848403895281516145d18582613f28565b94506145dc83614580565b925060208a019950506001810190506145b8565b50829750879550505050505092915050565b6000602082019050818103600083015261461c818461458d565b905092915050565b600060029050919050565b600081905092915050565b6000819050919050565b6000602082019050919050565b61465a81614624565b614664818461462f565b925061466f8261463a565b8060005b838110156146a05781516146878782614164565b965061469283614644565b925050600181019050614673565b505050505050565b600060608201905081810360008301526146c28185613f49565b90506146d16020830184614651565b9392505050565b600082825260208201905092915050565b7f756e6976657273697479206164646564207375636365737366756c6c79000000600082015250565b600061471f601d836146d8565b915061472a826146e9565b602082019050919050565b6000602082019050818103600083015261474e81614712565b9050919050565b7f4950465320686173682063616e6e6f7420626520656d70747900000000000000600082015250565b600061478b6019836146d8565b915061479682614755565b602082019050919050565b600060208201905081810360008301526147ba8161477e565b9050919050565b7f756e6971756549642063616e6e6f7420626520656d7074790000000000000000600082015250565b60006147f76018836146d8565b9150614802826147c1565b602082019050919050565b60006020820190508181036000830152614826816147ea565b9050919050565b600081905092915050565b600061484382613ea0565b61484d818561482d565b935061485d818560208601613ebc565b80840191505092915050565b60006148758284614838565b915081905092915050565b7f446f63756d656e7420616c726561647920657869737400000000000000000000600082015250565b60006148b66016836146d8565b91506148c182614880565b602082019050919050565b600060208201905081810360008301526148e5816148a9565b9050919050565b7f4f6e6c79205265676973746572656420756e697665727369747920697320616c60008201527f6c6f776564000000000000000000000000000000000000000000000000000000602082015250565b60006149486025836146d8565b9150614953826148ec565b604082019050919050565b600060208201905081810360008301526149778161493b565b9050919050565b7f446f63756d656e742075706c6f61646564207375636365737366756c6c790000600082015250565b60006149b4601e836146d8565b91506149bf8261497e565b602082019050919050565b600060208201905081810360008301526149e3816149a7565b9050919050565b7f4f6e6c792074686520636f6e7472616374206f776e65722063616e207065726660008201527f6f726d207468697320616374696f6e0000000000000000000000000000000000602082015250565b6000614a46602f836146d8565b9150614a51826149ea565b604082019050919050565b60006020820190508181036000830152614a7581614a39565b9050919050565b7f756e697665727369747920616c726561647920756e7665726966696564000000600082015250565b6000614ab2601d836146d8565b9150614abd82614a7c565b602082019050919050565b60006020820190508181036000830152614ae181614aa5565b9050919050565b7f756e69766572736974792072656d6f766564207375636365737366756c6c7900600082015250565b6000614b1e601f836146d8565b9150614b2982614ae8565b602082019050919050565b60006020820190508181036000830152614b4d81614b11565b9050919050565b7f526571756972652056616c696420436f6d70616e790000000000000000000000600082015250565b6000614b8a6015836146d8565b9150614b9582614b54565b602082019050919050565b60006020820190508181036000830152614bb981614b7d565b9050919050565b7f446f63756d656e7420646f6573206e6f74206578697374000000000000000000600082015250565b6000614bf66017836146d8565b9150614c0182614bc0565b602082019050919050565b60006020820190508181036000830152614c2581614be9565b9050919050565b7f436f6d70616e7920697320616c726561647920696e636c756465640000000000600082015250565b6000614c62601b836146d8565b9150614c6d82614c2c565b602082019050919050565b60006020820190508181036000830152614c9181614c55565b9050919050565b7f4f6e6c7920446f63756d656e74204f776e6572206f7220556e6976657273697460008201527f792063616e20706572666f726d207468697320616374696f6e00000000000000602082015250565b6000614cf46039836146d8565b9150614cff82614c98565b604082019050919050565b60006020820190508181036000830152614d2381614ce7565b9050919050565b7f636f6d70616e7920696e636c75646564207375636365737366756c6c79000000600082015250565b6000614d60601d836146d8565b9150614d6b82614d2a565b602082019050919050565b60006020820190508181036000830152614d8f81614d53565b9050919050565b7f5468697320636f6d70616e79206973206e6f7420617574686f72697a6564206260008201527f79207468652073747564656e74206f7220756e69766572736974790000000000602082015250565b6000614df2603b836146d8565b9150614dfd82614d96565b604082019050919050565b60006020820190508181036000830152614e2181614de5565b9050919050565b7f4e487b7100000000000000000000000000000000000000000000000000000000600052602260045260246000fd5b60006002820490506001821680614e6f57607f821691505b602082108103614e8257614e81614e28565b5b50919050565b7f4f6e6c792076616c696420756e697665727369746965732063616e207665726960008201527f667920646f63756d656e74730000000000000000000000000000000000000000602082015250565b6000614ee4602c836146d8565b9150614eef82614e88565b604082019050919050565b60006020820190508181036000830152614f1381614ed7565b9050919050565b7f6f6c64204950465320686173682063616e6e6f7420626520656d707479000000600082015250565b6000614f50601d836146d8565b9150614f5b82614f1a565b602082019050919050565b60006020820190508181036000830152614f7f81614f43565b9050919050565b7f6e6577204950465320686173682063616e6e6f7420626520656d707479000000600082015250565b6000614fbc601d836146d8565b9150614fc782614f86565b602082019050919050565b60006020820190508181036000830152614feb81614faf565b9050919050565b7f5468697320756e6976657273697479206973206e6f7420617574686f72697a6560008201527f6420746f2076657269667920746869732073747564656e74277320646f63756d60208201527f656e740000000000000000000000000000000000000000000000000000000000604082015250565b60006150746043836146d8565b915061507f82614ff2565b606082019050919050565b600060208201905081810360008301526150a381615067565b9050919050565b60008190508160005260206000209050919050565b600081546150cc81614e57565b6150d6818661482d565b945060018216600081146150f1576001811461510257615135565b60ff19831686528186019350615135565b61510b856150aa565b60005b8381101561512d5781548189015260018201915060208101905061510e565b838801955050505b50505092915050565b600061514a82846150bf565b915081905092915050565b7f46616b6520646f63756d656e7400000000000000000000000000000000000000600082015250565b600061518b600d836146d8565b915061519682615155565b602082019050919050565b600060208201905081810360008301526151ba8161517e565b9050919050565b7f446f63756d656e7420697320616c726561647920766572696669656400000000600082015250565b60006151f7601c836146d8565b9150615202826151c1565b602082019050919050565b60006020820190508181036000830152615226816151ea565b9050919050565b7f446f63756d656e74207665726966696564207375636365737366756c6c790000600082015250565b6000615263601e836146d8565b915061526e8261522d565b602082019050919050565b6000602082019050818103600083015261529281615256565b9050919050565b7f4f6e6c792076616c696420756e697665727369746965732063616e20756e766560008201527f7269667920646f63756d656e7473000000000000000000000000000000000000602082015250565b60006152f5602e836146d8565b915061530082615299565b604082019050919050565b60006020820190508181036000830152615324816152e8565b9050919050565b7f5468697320756e6976657273697479206973206e6f7420617574686f72697a6560008201527f6420746f20756e76657269667920746869732073747564656e74277320646f6360208201527f756d656e74000000000000000000000000000000000000000000000000000000604082015250565b60006153ad6045836146d8565b91506153b88261532b565b606082019050919050565b600060208201905081810360008301526153dc816153a0565b9050919050565b7f446f63756d656e7420697320616c726561647920756e76657269666965640000600082015250565b6000615419601e836146d8565b9150615424826153e3565b602082019050919050565b600060208201905081810360008301526154488161540c565b9050919050565b7f446f63756d656e7420756e7665726966696564207375636365737366756c6c79600082015250565b60006154856020836146d8565b91506154908261544f565b602082019050919050565b600060208201905081810360008301526154b481615478565b9050919050565b7f636f6d70616e792072656769737465726564207375636365737366756c6c7900600082015250565b60006154f1601f836146d8565b91506154fc826154bb565b602082019050919050565b60006020820190508181036000830152615520816154e4565b9050919050565b7f756e697665727369747920616c72656164792076657269666965640000000000600082015250565b600061555d601b836146d8565b915061556882615527565b602082019050919050565b6000602082019050818103600083015261558c81615550565b9050919050565b7f756e6976657273697479207665726966696564207375636365737366756c6c79600082015250565b60006155c96020836146d8565b91506155d482615593565b602082019050919050565b600060208201905081810360008301526155f8816155bc565b9050919050565b7f436f756e742065786365656473206172726179206c656e677468000000000000600082015250565b6000615635601a836146d8565b9150615640826155ff565b602082019050919050565b6000602082019050818103600083015261566481615628565b9050919050565b7f656c656d656e7473206d69736d61746368000000000000000000000000000000600082015250565b60006156a16011836146d8565b91506156ac8261566b565b602082019050919050565b600060208201905081810360008301526156d081615694565b9050919050565b7f4e487b7100000000000000000000000000000000000000000000000000000000600052603260045260246000fd5b7f45616368206461746120726f772073686f756c642068617665203220656c656d60008201527f656e747300000000000000000000000000000000000000000000000000000000602082015250565b60006157626024836146d8565b915061576d82615706565b604082019050919050565b6000602082019050818103600083015261579181615755565b9050919050565b7f4e487b7100000000000000000000000000000000000000000000000000000000600052601160045260246000fd5b60006157d282614493565b91507fffffffffffffffffffffffffffffffffffffffffffffffffffffffffffffffff820361580457615803615798565b5b600182019050919050565b7f726571756972652076616c696420756e69766572736974790000000000000000600082015250565b60006158456018836146d8565b91506158508261580f565b602082019050919050565b6000602082019050818103600083015261587481615838565b9050919050565b7f546869732075736572206973206e6f7420617574686f72697a656420746f206160008201527f636365737320646f63756d656e74000000000000000000000000000000000000602082015250565b60006158d7602e836146d8565b91506158e28261587b565b604082019050919050565b60006020820190508181036000830152615906816158ca565b9050919050565b7f5468652075736572206973206e6f7420617574686f72697a656420746f20616360008201527f6365737320646f63756d656e7400000000000000000000000000000000000000602082015250565b6000615969602d836146d8565b91506159748261590d565b604082019050919050565b600060208201905081810360008301526159988161595c565b9050919050565b7f436f6d70616e79206973206e6f7420696e636c7564656420627920746865207360008201527f747564656e74206f7220756e6976657273697479000000000000000000000000602082015250565b60006159fb6034836146d8565b9150615a068261599f565b604082019050919050565b60006020820190508181036000830152615a2a816159ee565b9050919050565b7f4f6e6c7920446f63756d656e74204f776e6572206f7220756e6976657273697460008201527f792063616e20706572666f726d207468697320616374696f6e00000000000000602082015250565b6000615a8d6039836146d8565b9150615a9882615a31565b604082019050919050565b60006020820190508181036000830152615abc81615a80565b9050919050565b7f636f6d70616e792072656d6f766564207375636365737366756c6c7900000000600082015250565b6000615af9601c836146d8565b9150615b0482615ac3565b602082019050919050565b60006020820190508181036000830152615b2881615aec565b9050919050565b7f636f6d70616e7920616c7265647920756e766572696669656400000000000000600082015250565b6000615b656019836146d8565b9150615b7082615b2f565b602082019050919050565b60006020820190508181036000830152615b9481615b58565b9050919050565b7f636f6d70616e7920756e2d7665726966696564207375636365737366756c6c79600082015250565b6000615bd16020836146d8565b9150615bdc82615b9b565b602082019050919050565b60006020820190508181036000830152615c0081615bc4565b9050919050565b7f636f6d70616e7920616c72656479207665726966696564000000000000000000600082015250565b6000615c3d6017836146d8565b9150615c4882615c07565b602082019050919050565b60006020820190508181036000830152615c6c81615c30565b9050919050565b7f636f6d70616e79207665726966696564207375636365737366756c6c79000000600082015250565b6000615ca9601d836146d8565b9150615cb482615c73565b602082019050919050565b60006020820190508181036000830152615cd881615c9c565b905091905056fea264697066735822122073dc32954ddc1bb5aa0fdd98a63b24045f29514a3efb55835f9d666c74ae52bf64736f6c634300080d0033",
  "immutableReferences": {},
  "source": "// SPDX-License-Identifier: MIT\r\npragma solidity ^0.8.0;\r\n\r\n\r\ncontract Contract {\r\n    struct Document {\r\n        address owner;             // Address of the document owner (student)\r\n        address universityAddress; // Address of the university that can verify the document\r\n        string ipfsHash;          // IPFS hash of the document\r\n        bool verified;            // Indicates if the document is verified by the university\r\n    }\r\n\r\n    mapping(string => mapping(address => bool)) private  AccessCompanyMapping;   //document->companies[]\r\n    mapping(address => bool) private  universities;      //valid or invalid university list\r\n    mapping(address => bool) private  companies;         //valid or invalid companies list\r\n    mapping(string => Document) private  documentsById; // Mapping to store documents by their unique Id\r\n    mapping(address => string[]) private universityDocumentList; // mapping of university-> document[] list//\r\n    mapping(address => string[]) private studentDocumentList; // mapping of student-> document[] list//\r\n    \r\n\r\n    address[] private  universityAddresses; // Separate array to store university addresses\r\n    address[] private  companyAddresses; // Separate array to store company addresses\r\n   \r\n\r\n\r\n    address private  contractOwner;     //contract owner\r\n\r\n    event LogPrint(string  message);   //success log \r\n    event LogAddressPrint(address message); \r\n    constructor() {\r\n        contractOwner = msg.sender; // Set the contract owner to the address that deploys the contract\r\n    }\r\n\r\n    modifier onlyOwner() {\r\n        require(msg.sender == contractOwner, \"Only the contract owner can perform this action\");\r\n        _;\r\n    }\r\n\r\n    function getOwner() public view returns(address){\r\n        return contractOwner;\r\n    }\r\n\r\n\r\n    function uploadDocument(string memory uniqueId,string memory ipfsHash, address universityAddress) public {  //call by student or university\r\n        require(bytes(ipfsHash).length > 0, \"IPFS hash cannot be empty\");\r\n        require(bytes(uniqueId).length > 0, \"uniqueId cannot be empty\");\r\n        require(documentsById[uniqueId].owner== address(0), \"Document already exist\");\r\n        require(universities[universityAddress], \"Only Registered university is allowed\");\r\n             \r\n\r\n        Document memory document = Document({\r\n            owner: msg.sender,\r\n            universityAddress: universityAddress,\r\n            ipfsHash: ipfsHash,\r\n            verified: false\r\n        });\r\n\r\n        documentsById[uniqueId] = document; // Store the document by its id // \r\n        universityDocumentList[universityAddress].push(uniqueId); //add new id in university document list\r\n        studentDocumentList[msg.sender].push(uniqueId);  //add new id in student document list\r\n         emit LogPrint(\"Document uploaded successfully\");\r\n    }\r\n\r\n    function uploadDocumentnVerify(string[][] memory data,address[] memory studentAddressList,uint  count) public { //only by university//\r\n      require(universities[msg.sender], \"Only Registered university is allowed\");\r\n        require(data.length >= count || studentAddressList.length >= count , \"Count exceeds array length\");\r\n       require(data.length==studentAddressList.length,\"elements mismatch\");\r\n       for(uint i=0;i<count;i++){\r\n        require(data[i].length == 2, \"Each data row should have 2 elements\");\r\n\r\n        Document memory document = Document({\r\n            owner: studentAddressList[i],\r\n            universityAddress:  msg.sender,\r\n            ipfsHash: data[i][1],\r\n            verified: true\r\n        });\r\n        string memory documentId=data[i][0];\r\n        documentsById[documentId] = document; // Store the document by its id // \r\n        universityDocumentList[msg.sender].push(documentId); //add new id in university document list\r\n        studentDocumentList[document.owner].push(documentId);  //add new id in student document list\r\n        \r\n\r\n        emit LogAddressPrint(document.owner); // Emitting the event with the concatenated message\r\n    }\r\n    }\r\n\r\n    function verifyDocument(string memory uniqueId,string memory oldipfsHash,string memory newipfsHash) public  { //only call by university\r\n        require(bytes(uniqueId).length > 0, \"uniqueId cannot be empty\");\r\n        require(universities[msg.sender], \"Only valid universities can verify documents\");\r\n        require(bytes(oldipfsHash).length > 0, \"old IPFS hash cannot be empty\");\r\n        require(bytes(newipfsHash).length > 0, \"new IPFS hash cannot be empty\");\r\n        require(documentsById[uniqueId].owner!= address(0), \"Document does not exist\");\r\n        Document storage document = documentsById[uniqueId];\r\n        require(document.universityAddress==msg.sender, \"This university is not authorized to verify this student's document\");\r\n        require(keccak256(abi.encodePacked(document.ipfsHash)) == keccak256(abi.encodePacked(oldipfsHash)),\"Fake document\");\r\n        require(!document.verified, \"Document is already verified\");\r\n        document.ipfsHash=newipfsHash;\r\n        document.verified = true;\r\n         emit LogPrint(\"Document verified successfully\");\r\n        \r\n    }\r\n    function unverifyDocument(string memory uniqueId,string memory newipfsHash) public  { //only call by university\r\n        require(bytes(uniqueId).length > 0, \"uniqueId cannot be empty\");\r\n        require(universities[msg.sender], \"Only valid universities can unverify documents\");\r\n        require(bytes(newipfsHash).length > 0, \"new IPFS hash cannot be empty\");\r\n        require(documentsById[uniqueId].owner!= address(0), \"Document does not exist\");\r\n        Document storage document = documentsById[uniqueId];\r\n        require(document.universityAddress==msg.sender, \"This university is not authorized to unverify this student's document\");\r\n        require(keccak256(abi.encodePacked(document.ipfsHash)) == keccak256(abi.encodePacked(newipfsHash)),\"Fake document\");\r\n        require(document.verified, \"Document is already unverified\");\r\n        \r\n        document.verified = false;\r\n         emit LogPrint(\"Document unverified successfully\");\r\n    }\r\n    \r\n\r\n    function includeCompany(string memory uniqueId,address companyAddress) public   { // can be call by student or university\r\n        require(bytes(uniqueId).length > 0, \"uniqueId cannot be empty\");\r\n        require(companies[companyAddress],\"Require Valid Company\");\r\n        require(documentsById[uniqueId].owner!= address(0), \"Document does not exist\");\r\n     \r\n        require(!AccessCompanyMapping[uniqueId][companyAddress], \"Company is already included\");\r\n     \r\n        Document storage document = documentsById[uniqueId];\r\n        require(document.owner==msg.sender||document.universityAddress==msg.sender,\"Only Document Owner or University can perform this action\");\r\n       \r\n        AccessCompanyMapping[uniqueId][companyAddress] = true;\r\n         emit LogPrint(\"company included successfully\");\r\n    }\r\n\r\n    function removeCompany(string memory uniqueId,address companyAddress) public {  // can be call by student or university\r\n        require(bytes(uniqueId).length > 0, \"uniqueId cannot be empty\");\r\n        require(companies[companyAddress],\"Require Valid Company\");\r\n        require(documentsById[uniqueId].owner!= address(0), \"Document does not exist\");\r\n     \r\n        require( AccessCompanyMapping[uniqueId][companyAddress], \"Company is not included by the student or university\");\r\n      \r\n        Document storage document = documentsById[uniqueId];\r\n        require(document.owner==msg.sender||document.universityAddress==msg.sender,\"Only Document Owner or university can perform this action\");\r\n       \r\n        AccessCompanyMapping[uniqueId][companyAddress] = false;\r\n         emit LogPrint(\"company removed successfully\");\r\n    }\r\n\r\n    function checkStatus(string memory uniqueId) public view  returns (string[2] memory) { // can be call by student or university or comapny with mapping with student or university\r\n        require(bytes(uniqueId).length > 0, \"uniqueId cannot be empty\");\r\n        require(documentsById[uniqueId].owner!= address(0), \"Document does not exist\");\r\n        \r\n        Document storage document = documentsById[uniqueId];\r\n        \r\n        require(AccessCompanyMapping[uniqueId][msg.sender] ||document.owner==msg.sender||document.universityAddress==msg.sender,\"This company is not authorized by the student or university\" );\r\n        if(document.verified){\r\n        return [\"true\",document.ipfsHash];\r\n        }else{\r\n        return [\"false\",document.ipfsHash];\r\n  \r\n        }\r\n        \r\n    }\r\n    function checknverify(string memory uniqueId,string memory newipfsHash) public view  returns (bool) { // can be call by student or university or comapny with mapping with student or university\r\n        require(bytes(newipfsHash).length > 0, \"IPFS hash cannot be empty\");\r\n        require(bytes(uniqueId).length > 0, \"uniqueId cannot be empty\");\r\n        require(documentsById[uniqueId].owner!= address(0), \"Document does not exist\");\r\n        \r\n        Document storage document = documentsById[uniqueId];\r\n        \r\n        require(AccessCompanyMapping[uniqueId][msg.sender] ||document.owner==msg.sender||document.universityAddress==msg.sender,\"This company is not authorized by the student or university\" );\r\n        require(keccak256(abi.encodePacked(document.ipfsHash)) == keccak256(abi.encodePacked(newipfsHash)),\"Fake document\");\r\n        return document.verified;\r\n    }\r\n\r\n    function registerCompany() public {  //call by company//no check//\r\n        companies[msg.sender]=false; \r\n        companyAddresses.push(msg.sender);         //creates a new company/\r\n         emit LogPrint(\"company registered successfully\");\r\n    }\r\n\r\n    function verifyCompany(address companyAddress) public onlyOwner{\r\n        require( !companies[companyAddress],\"company alredy verified\");\r\n         companies[companyAddress] = true; \r\n          emit LogPrint(\"company verified successfully\");\r\n    }\r\n\r\n    function unverifyCompany(address companyAddress) public onlyOwner{\r\n        require( companies[companyAddress],\"company alredy unverified\");\r\n         companies[companyAddress] = false; \r\n          emit LogPrint(\"company un-verified successfully\");\r\n         \r\n    }\r\n    \r\n    \r\n    function addUniversity() public    //no check//\r\n     {\r\n        universities[msg.sender] = false; \r\n        universityAddresses.push(msg.sender);\r\n         emit LogPrint(\"university added successfully\");\r\n    }\r\n\r\n    function verifyUniversity(address universityAddress) public onlyOwner{ //onlyOwner   \r\n        require( !universities[universityAddress],\"university already verified\");\r\n        universities[universityAddress] = true; \r\n         emit LogPrint(\"university verified successfully\");\r\n    }\r\n\r\n    function removeUniversity(address universityAddress) public onlyOwner{ //onlyOwner  \r\n        require( universities[universityAddress],\"university already unverified\");\r\n        universities[universityAddress] = false; \r\n         emit LogPrint(\"university removed successfully\");\r\n    }\r\n\r\n\r\n    // Function to get all university addresses\r\n    function getAllUniversityAddresses() public view returns (address[] memory) {\r\n        return universityAddresses;\r\n    }\r\n\r\n    // Function to get all company addresses\r\n    function getAllCompanyAddresses() public view returns (address[] memory) {\r\n        return companyAddresses;\r\n    }\r\n\r\n    function checkUniversity(address universityAddress) public view returns(bool){\r\n        return  universities[universityAddress];\r\n    }\r\n\r\n    function checkCompany(address companyAddress) public view returns(bool){\r\n        return  companies[companyAddress];\r\n    }\r\n\r\n    function getUniversityDocumentList() public view returns(string[] memory){\r\n    require( universities[msg.sender],\"require valid university\");\r\n       return universityDocumentList[msg.sender];\r\n    }\r\n    \r\n    function getStudentDocumentList() public view returns(string[] memory){\r\n       return studentDocumentList[msg.sender];\r\n    }\r\n\r\n      function getDocumentCompanyList(string memory uniqueId) public view returns (address[] memory) {\r\n       require(bytes(uniqueId).length > 0, \"uniqueId cannot be empty\");\r\n        \r\n       Document storage document = documentsById[uniqueId];\r\n        require(document.owner!= address(0), \"Document does not exist\");\r\n         \r\n          require(document.owner==msg.sender||document.universityAddress==msg.sender,\"The user is not authorized to access document\" );\r\n     \r\n        mapping(address => bool) storage companiesm = AccessCompanyMapping[uniqueId];\r\n    \r\n     uint256 count;\r\n\r\n    // First, count the number of addresses that have true values\r\n    for (uint256 i = 0; i < companyAddresses.length; i++) {\r\n        if (companiesm[companyAddresses[i]]) {\r\n            count++;\r\n        }\r\n    }\r\n\r\n    // Create an array to hold the eligible addresses\r\n    address[] memory allowedCompanies = new address[](count) ;\r\n    uint256 index = 0;\r\n\r\n    // Collect the addresses with true values\r\n    for (uint256 i = 0; i < companyAddresses.length; i++) {\r\n        if (companiesm[companyAddresses[i]]) {\r\n            allowedCompanies[index] = companyAddresses[i];\r\n            index++;\r\n        }\r\n    }\r\n\r\n    return allowedCompanies;\r\n\r\n    }\r\n\r\n    function getDocumentDetails(string memory uniqueId) public view returns(string[2] memory,address[2] memory){\r\n     require(bytes(uniqueId).length > 0, \"uniqueId cannot be empty\");\r\n        \r\n       Document storage document = documentsById[uniqueId];\r\n        require(document.owner!= address(0), \"Document does not exist\");\r\n         \r\n          require(AccessCompanyMapping[uniqueId][msg.sender] ||document.owner==msg.sender||document.universityAddress==msg.sender,\"This user is not authorized to access document\" );\r\n        string memory verifiedStr = document.verified ? \"true\" : \"false\";\r\n        return ([document.ipfsHash, verifiedStr],[document.owner,document.universityAddress]);\r\n   \r\n     }\r\n\r\n \r\n\r\n}",
  "sourcePath": "C:\\Users\\gkavi\\DoQfy\\main\\SmartContract\\contracts\\Contract.sol",
  "compiler": {
    "name": "solc",
    "version": "0.8.13+commit.abaa5c0e.Emscripten.clang"
  },
  "schemaVersion": "3.4.16",
  "updatedAt": "2024-04-30T09:37:21.232Z",
  "networkType": "ethereum",
  "devdoc": {
    "kind": "dev",
    "methods": {},
    "version": 1
  },
  "userdoc": {
    "kind": "user",
    "methods": {},
    "version": 1
  }
}